{
  "_format": "hh-sol-artifact-1",
  "contractName": "NFTMarketplace",
  "sourceName": "contracts/NFTMarketplace.sol",
  "abi": [
    {
      "inputs": [],
      "stateMutability": "nonpayable",
      "type": "constructor"
    },
    {
      "inputs": [
        {
          "internalType": "address",
          "name": "sender",
          "type": "address"
        },
        {
          "internalType": "uint256",
          "name": "tokenId",
          "type": "uint256"
        },
        {
          "internalType": "address",
          "name": "owner",
          "type": "address"
        }
      ],
      "name": "ERC721IncorrectOwner",
      "type": "error"
    },
    {
      "inputs": [
        {
          "internalType": "address",
          "name": "operator",
          "type": "address"
        },
        {
          "internalType": "uint256",
          "name": "tokenId",
          "type": "uint256"
        }
      ],
      "name": "ERC721InsufficientApproval",
      "type": "error"
    },
    {
      "inputs": [
        {
          "internalType": "address",
          "name": "approver",
          "type": "address"
        }
      ],
      "name": "ERC721InvalidApprover",
      "type": "error"
    },
    {
      "inputs": [
        {
          "internalType": "address",
          "name": "operator",
          "type": "address"
        }
      ],
      "name": "ERC721InvalidOperator",
      "type": "error"
    },
    {
      "inputs": [
        {
          "internalType": "address",
          "name": "owner",
          "type": "address"
        }
      ],
      "name": "ERC721InvalidOwner",
      "type": "error"
    },
    {
      "inputs": [
        {
          "internalType": "address",
          "name": "receiver",
          "type": "address"
        }
      ],
      "name": "ERC721InvalidReceiver",
      "type": "error"
    },
    {
      "inputs": [
        {
          "internalType": "address",
          "name": "sender",
          "type": "address"
        }
      ],
      "name": "ERC721InvalidSender",
      "type": "error"
    },
    {
      "inputs": [
        {
          "internalType": "uint256",
          "name": "tokenId",
          "type": "uint256"
        }
      ],
      "name": "ERC721NonexistentToken",
      "type": "error"
    },
    {
      "inputs": [],
      "name": "EnforcedPause",
      "type": "error"
    },
    {
      "inputs": [],
      "name": "ExpectedPause",
      "type": "error"
    },
    {
      "inputs": [
        {
          "internalType": "address",
          "name": "owner",
          "type": "address"
        }
      ],
      "name": "OwnableInvalidOwner",
      "type": "error"
    },
    {
      "inputs": [
        {
          "internalType": "address",
          "name": "account",
          "type": "address"
        }
      ],
      "name": "OwnableUnauthorizedAccount",
      "type": "error"
    },
    {
      "anonymous": false,
      "inputs": [
        {
          "indexed": true,
          "internalType": "address",
          "name": "owner",
          "type": "address"
        },
        {
          "indexed": true,
          "internalType": "address",
          "name": "approved",
          "type": "address"
        },
        {
          "indexed": true,
          "internalType": "uint256",
          "name": "tokenId",
          "type": "uint256"
        }
      ],
      "name": "Approval",
      "type": "event"
    },
    {
      "anonymous": false,
      "inputs": [
        {
          "indexed": true,
          "internalType": "address",
          "name": "owner",
          "type": "address"
        },
        {
          "indexed": true,
          "internalType": "address",
          "name": "operator",
          "type": "address"
        },
        {
          "indexed": false,
          "internalType": "bool",
          "name": "approved",
          "type": "bool"
        }
      ],
      "name": "ApprovalForAll",
      "type": "event"
    },
    {
      "anonymous": false,
      "inputs": [
        {
          "indexed": false,
          "internalType": "uint256",
          "name": "_fromTokenId",
          "type": "uint256"
        },
        {
          "indexed": false,
          "internalType": "uint256",
          "name": "_toTokenId",
          "type": "uint256"
        }
      ],
      "name": "BatchMetadataUpdate",
      "type": "event"
    },
    {
      "anonymous": false,
      "inputs": [
        {
          "indexed": false,
          "internalType": "uint256",
          "name": "_tokenId",
          "type": "uint256"
        }
      ],
      "name": "MetadataUpdate",
      "type": "event"
    },
    {
      "anonymous": false,
      "inputs": [
        {
          "indexed": true,
          "internalType": "uint256",
          "name": "tokenId",
          "type": "uint256"
        },
        {
          "indexed": true,
          "internalType": "address",
          "name": "buyer",
          "type": "address"
        },
        {
          "indexed": false,
          "internalType": "uint256",
          "name": "price",
          "type": "uint256"
        }
      ],
      "name": "NFTBought",
      "type": "event"
    },
    {
      "anonymous": false,
      "inputs": [
        {
          "indexed": true,
          "internalType": "uint256",
          "name": "tokenId",
          "type": "uint256"
        },
        {
          "indexed": false,
          "internalType": "uint256",
          "name": "price",
          "type": "uint256"
        }
      ],
      "name": "NFTListed",
      "type": "event"
    },
    {
      "anonymous": false,
      "inputs": [
        {
          "indexed": true,
          "internalType": "uint256",
          "name": "tokenId",
          "type": "uint256"
        },
        {
          "indexed": true,
          "internalType": "address",
          "name": "creator",
          "type": "address"
        },
        {
          "indexed": false,
          "internalType": "uint256",
          "name": "price",
          "type": "uint256"
        }
      ],
      "name": "NFTMinted",
      "type": "event"
    },
    {
      "anonymous": false,
      "inputs": [
        {
          "indexed": true,
          "internalType": "address",
          "name": "previousOwner",
          "type": "address"
        },
        {
          "indexed": true,
          "internalType": "address",
          "name": "newOwner",
          "type": "address"
        }
      ],
      "name": "OwnershipTransferred",
      "type": "event"
    },
    {
      "anonymous": false,
      "inputs": [
        {
          "indexed": false,
          "internalType": "address",
          "name": "account",
          "type": "address"
        }
      ],
      "name": "Paused",
      "type": "event"
    },
    {
      "anonymous": false,
      "inputs": [
        {
          "indexed": true,
          "internalType": "address",
          "name": "from",
          "type": "address"
        },
        {
          "indexed": true,
          "internalType": "address",
          "name": "to",
          "type": "address"
        },
        {
          "indexed": true,
          "internalType": "uint256",
          "name": "tokenId",
          "type": "uint256"
        }
      ],
      "name": "Transfer",
      "type": "event"
    },
    {
      "anonymous": false,
      "inputs": [
        {
          "indexed": false,
          "internalType": "address",
          "name": "account",
          "type": "address"
        }
      ],
      "name": "Unpaused",
      "type": "event"
    },
    {
      "inputs": [
        {
          "internalType": "address",
          "name": "to",
          "type": "address"
        },
        {
          "internalType": "uint256",
          "name": "tokenId",
          "type": "uint256"
        }
      ],
      "name": "approve",
      "outputs": [],
      "stateMutability": "nonpayable",
      "type": "function"
    },
    {
      "inputs": [
        {
          "internalType": "address",
          "name": "owner",
          "type": "address"
        }
      ],
      "name": "balanceOf",
      "outputs": [
        {
          "internalType": "uint256",
          "name": "",
          "type": "uint256"
        }
      ],
      "stateMutability": "view",
      "type": "function"
    },
    {
      "inputs": [
        {
          "internalType": "uint256",
          "name": "tokenId",
          "type": "uint256"
        }
      ],
      "name": "buyNFT",
      "outputs": [],
      "stateMutability": "payable",
      "type": "function"
    },
    {
      "inputs": [],
      "name": "getAllNFTs",
      "outputs": [
        {
          "components": [
            {
              "internalType": "uint256",
              "name": "tokenId",
              "type": "uint256"
            },
            {
              "internalType": "address payable",
              "name": "creator",
              "type": "address"
            },
            {
              "internalType": "uint256",
              "name": "price",
              "type": "uint256"
            },
            {
              "internalType": "bool",
              "name": "isListed",
              "type": "bool"
            }
          ],
          "internalType": "struct NFTMarketplace.NFT[]",
          "name": "",
          "type": "tuple[]"
        }
      ],
      "stateMutability": "view",
      "type": "function"
    },
    {
      "inputs": [
        {
          "internalType": "uint256",
          "name": "tokenId",
          "type": "uint256"
        }
      ],
      "name": "getApproved",
      "outputs": [
        {
          "internalType": "address",
          "name": "",
          "type": "address"
        }
      ],
      "stateMutability": "view",
      "type": "function"
    },
    {
      "inputs": [
        {
          "internalType": "address",
          "name": "owner",
          "type": "address"
        },
        {
          "internalType": "address",
          "name": "operator",
          "type": "address"
        }
      ],
      "name": "isApprovedForAll",
      "outputs": [
        {
          "internalType": "bool",
          "name": "",
          "type": "bool"
        }
      ],
      "stateMutability": "view",
      "type": "function"
    },
    {
      "inputs": [
        {
          "internalType": "uint256",
          "name": "tokenId",
          "type": "uint256"
        },
        {
          "internalType": "uint256",
          "name": "price",
          "type": "uint256"
        }
      ],
      "name": "listNFT",
      "outputs": [],
      "stateMutability": "nonpayable",
      "type": "function"
    },
    {
      "inputs": [
        {
          "internalType": "string",
          "name": "tokenURI",
          "type": "string"
        },
        {
          "internalType": "uint256",
          "name": "price",
          "type": "uint256"
        }
      ],
      "name": "mintNFT",
      "outputs": [
        {
          "internalType": "uint256",
          "name": "",
          "type": "uint256"
        }
      ],
      "stateMutability": "nonpayable",
      "type": "function"
    },
    {
      "inputs": [],
      "name": "name",
      "outputs": [
        {
          "internalType": "string",
          "name": "",
          "type": "string"
        }
      ],
      "stateMutability": "view",
      "type": "function"
    },
    {
      "inputs": [
        {
          "internalType": "uint256",
          "name": "",
          "type": "uint256"
        }
      ],
      "name": "nfts",
      "outputs": [
        {
          "internalType": "uint256",
          "name": "tokenId",
          "type": "uint256"
        },
        {
          "internalType": "address payable",
          "name": "creator",
          "type": "address"
        },
        {
          "internalType": "uint256",
          "name": "price",
          "type": "uint256"
        },
        {
          "internalType": "bool",
          "name": "isListed",
          "type": "bool"
        }
      ],
      "stateMutability": "view",
      "type": "function"
    },
    {
      "inputs": [],
      "name": "owner",
      "outputs": [
        {
          "internalType": "address",
          "name": "",
          "type": "address"
        }
      ],
      "stateMutability": "view",
      "type": "function"
    },
    {
      "inputs": [
        {
          "internalType": "uint256",
          "name": "tokenId",
          "type": "uint256"
        }
      ],
      "name": "ownerOf",
      "outputs": [
        {
          "internalType": "address",
          "name": "",
          "type": "address"
        }
      ],
      "stateMutability": "view",
      "type": "function"
    },
    {
      "inputs": [],
      "name": "pauseMarketplace",
      "outputs": [],
      "stateMutability": "nonpayable",
      "type": "function"
    },
    {
      "inputs": [],
      "name": "paused",
      "outputs": [
        {
          "internalType": "bool",
          "name": "",
          "type": "bool"
        }
      ],
      "stateMutability": "view",
      "type": "function"
    },
    {
      "inputs": [],
      "name": "renounceOwnership",
      "outputs": [],
      "stateMutability": "nonpayable",
      "type": "function"
    },
    {
      "inputs": [
        {
          "internalType": "address",
          "name": "from",
          "type": "address"
        },
        {
          "internalType": "address",
          "name": "to",
          "type": "address"
        },
        {
          "internalType": "uint256",
          "name": "tokenId",
          "type": "uint256"
        }
      ],
      "name": "safeTransferFrom",
      "outputs": [],
      "stateMutability": "nonpayable",
      "type": "function"
    },
    {
      "inputs": [
        {
          "internalType": "address",
          "name": "from",
          "type": "address"
        },
        {
          "internalType": "address",
          "name": "to",
          "type": "address"
        },
        {
          "internalType": "uint256",
          "name": "tokenId",
          "type": "uint256"
        },
        {
          "internalType": "bytes",
          "name": "data",
          "type": "bytes"
        }
      ],
      "name": "safeTransferFrom",
      "outputs": [],
      "stateMutability": "nonpayable",
      "type": "function"
    },
    {
      "inputs": [
        {
          "internalType": "address",
          "name": "operator",
          "type": "address"
        },
        {
          "internalType": "bool",
          "name": "approved",
          "type": "bool"
        }
      ],
      "name": "setApprovalForAll",
      "outputs": [],
      "stateMutability": "nonpayable",
      "type": "function"
    },
    {
      "inputs": [
        {
          "internalType": "bytes4",
          "name": "interfaceId",
          "type": "bytes4"
        }
      ],
      "name": "supportsInterface",
      "outputs": [
        {
          "internalType": "bool",
          "name": "",
          "type": "bool"
        }
      ],
      "stateMutability": "view",
      "type": "function"
    },
    {
      "inputs": [],
      "name": "symbol",
      "outputs": [
        {
          "internalType": "string",
          "name": "",
          "type": "string"
        }
      ],
      "stateMutability": "view",
      "type": "function"
    },
    {
      "inputs": [
        {
          "internalType": "uint256",
          "name": "tokenId",
          "type": "uint256"
        }
      ],
      "name": "tokenURI",
      "outputs": [
        {
          "internalType": "string",
          "name": "",
          "type": "string"
        }
      ],
      "stateMutability": "view",
      "type": "function"
    },
    {
      "inputs": [
        {
          "internalType": "address",
          "name": "from",
          "type": "address"
        },
        {
          "internalType": "address",
          "name": "to",
          "type": "address"
        },
        {
          "internalType": "uint256",
          "name": "tokenId",
          "type": "uint256"
        }
      ],
      "name": "transferFrom",
      "outputs": [],
      "stateMutability": "nonpayable",
      "type": "function"
    },
    {
      "inputs": [
        {
          "internalType": "address",
          "name": "newOwner",
          "type": "address"
        }
      ],
      "name": "transferOwnership",
      "outputs": [],
      "stateMutability": "nonpayable",
      "type": "function"
    },
    {
      "inputs": [],
      "name": "unpauseMarketplace",
      "outputs": [],
      "stateMutability": "nonpayable",
      "type": "function"
    },
    {
      "inputs": [],
      "name": "withdraw",
      "outputs": [],
      "stateMutability": "nonpayable",
      "type": "function"
    }
  ],
  "bytecode": "0x60806040523480156200001157600080fd5b50336040518060400160405280600e81526020017f4e46544d61726b6574706c6163650000000000000000000000000000000000008152506040518060400160405280600481526020017f4e46544d0000000000000000000000000000000000000000000000000000000081525081600090816200009091906200048d565b508060019081620000a291906200048d565b505050600073ffffffffffffffffffffffffffffffffffffffff168173ffffffffffffffffffffffffffffffffffffffff16036200011a5760006040517f1e4fbdf7000000000000000000000000000000000000000000000000000000008152600401620001119190620005b9565b60405180910390fd5b6200012b816200014d60201b60201c565b506000600760146101000a81548160ff021916908315150217905550620005d6565b6000600760009054906101000a900473ffffffffffffffffffffffffffffffffffffffff16905081600760006101000a81548173ffffffffffffffffffffffffffffffffffffffff021916908373ffffffffffffffffffffffffffffffffffffffff1602179055508173ffffffffffffffffffffffffffffffffffffffff168173ffffffffffffffffffffffffffffffffffffffff167f8be0079c531659141344cd1fd0a4f28419497f9722a3daafe3b4186f6b6457e060405160405180910390a35050565b600081519050919050565b7f4e487b7100000000000000000000000000000000000000000000000000000000600052604160045260246000fd5b7f4e487b7100000000000000000000000000000000000000000000000000000000600052602260045260246000fd5b600060028204905060018216806200029557607f821691505b602082108103620002ab57620002aa6200024d565b5b50919050565b60008190508160005260206000209050919050565b60006020601f8301049050919050565b600082821b905092915050565b600060088302620003157fffffffffffffffffffffffffffffffffffffffffffffffffffffffffffffffff82620002d6565b620003218683620002d6565b95508019841693508086168417925050509392505050565b6000819050919050565b6000819050919050565b60006200036e62000368620003628462000339565b62000343565b62000339565b9050919050565b6000819050919050565b6200038a836200034d565b620003a2620003998262000375565b848454620002e3565b825550505050565b600090565b620003b9620003aa565b620003c68184846200037f565b505050565b5b81811015620003ee57620003e2600082620003af565b600181019050620003cc565b5050565b601f8211156200043d576200040781620002b1565b6200041284620002c6565b8101602085101562000422578190505b6200043a6200043185620002c6565b830182620003cb565b50505b505050565b600082821c905092915050565b6000620004626000198460080262000442565b1980831691505092915050565b60006200047d83836200044f565b9150826002028217905092915050565b620004988262000213565b67ffffffffffffffff811115620004b457620004b36200021e565b5b620004c082546200027c565b620004cd828285620003f2565b600060209050601f831160018114620005055760008415620004f0578287015190505b620004fc85826200046f565b8655506200056c565b601f1984166200051586620002b1565b60005b828110156200053f5784890151825560018201915060208501945060208101905062000518565b868310156200055f57848901516200055b601f8916826200044f565b8355505b6001600288020188555050505b505050505050565b600073ffffffffffffffffffffffffffffffffffffffff82169050919050565b6000620005a18262000574565b9050919050565b620005b38162000594565b82525050565b6000602082019050620005d06000830184620005a8565b92915050565b6136c980620005e66000396000f3fe6080604052600436106101665760003560e01c80635c975abb116100d157806395d89b411161008a578063c87b56dd11610064578063c87b56dd146104f6578063e0391b0914610533578063e985e9c51461055e578063f2fde38b1461059b57610166565b806395d89b4114610479578063a22cb465146104a4578063b88d4fde146104cd57610166565b80635c975abb146103695780636352211e1461039457806370a08231146103d1578063715018a61461040e5780638da5cb5b1461042557806394383f141461045057610166565b8063265aa62111610123578063265aa621146102795780633ccfd60b146102b95780633ec62279146102d057806342842e0e146102e757806351ed8288146103105780635afa3a721461032c57610166565b806301ffc9a71461016b57806306fdde03146101a8578063081812fc146101d3578063095ea7b31461021057806321f67fbb1461023957806323b872dd14610250575b600080fd5b34801561017757600080fd5b50610192600480360381019061018d9190612715565b6105c4565b60405161019f919061275d565b60405180910390f35b3480156101b457600080fd5b506101bd610625565b6040516101ca9190612808565b60405180910390f35b3480156101df57600080fd5b506101fa60048036038101906101f59190612860565b6106b7565b60405161020791906128ce565b60405180910390f35b34801561021c57600080fd5b5061023760048036038101906102329190612915565b6106d3565b005b34801561024557600080fd5b5061024e6106e9565b005b34801561025c57600080fd5b5061027760048036038101906102729190612955565b6106fb565b005b34801561028557600080fd5b506102a0600480360381019061029b9190612860565b6107fd565b6040516102b094939291906129d8565b60405180910390f35b3480156102c557600080fd5b506102ce61085a565b005b3480156102dc57600080fd5b506102e56108b2565b005b3480156102f357600080fd5b5061030e60048036038101906103099190612955565b6108c4565b005b61032a60048036038101906103259190612860565b6108e4565b005b34801561033857600080fd5b50610353600480360381019061034e9190612b52565b610b04565b6040516103609190612bae565b60405180910390f35b34801561037557600080fd5b5061037e610caa565b60405161038b919061275d565b60405180910390f35b3480156103a057600080fd5b506103bb60048036038101906103b69190612860565b610cc1565b6040516103c891906128ce565b60405180910390f35b3480156103dd57600080fd5b506103f860048036038101906103f39190612bc9565b610cd3565b6040516104059190612bae565b60405180910390f35b34801561041a57600080fd5b50610423610d8d565b005b34801561043157600080fd5b5061043a610da1565b60405161044791906128ce565b60405180910390f35b34801561045c57600080fd5b5061047760048036038101906104729190612bf6565b610dcb565b005b34801561048557600080fd5b5061048e610f12565b60405161049b9190612808565b60405180910390f35b3480156104b057600080fd5b506104cb60048036038101906104c69190612c62565b610fa4565b005b3480156104d957600080fd5b506104f460048036038101906104ef9190612d43565b610fba565b005b34801561050257600080fd5b5061051d60048036038101906105189190612860565b610fd7565b60405161052a9190612808565b60405180910390f35b34801561053f57600080fd5b506105486110ea565b6040516105559190612ef7565b60405180910390f35b34801561056a57600080fd5b5061058560048036038101906105809190612f19565b611266565b604051610592919061275d565b60405180910390f35b3480156105a757600080fd5b506105c260048036038101906105bd9190612bc9565b6112fa565b005b6000634906490660e01b7bffffffffffffffffffffffffffffffffffffffffffffffffffffffff1916827bffffffffffffffffffffffffffffffffffffffffffffffffffffffff1916148061061e575061061d82611380565b5b9050919050565b60606000805461063490612f88565b80601f016020809104026020016040519081016040528092919081815260200182805461066090612f88565b80156106ad5780601f10610682576101008083540402835291602001916106ad565b820191906000526020600020905b81548152906001019060200180831161069057829003601f168201915b5050505050905090565b60006106c282611462565b506106cc826114ea565b9050919050565b6106e582826106e0611527565b61152f565b5050565b6106f1611541565b6106f96115c8565b565b600073ffffffffffffffffffffffffffffffffffffffff168273ffffffffffffffffffffffffffffffffffffffff160361076d5760006040517f64a0ae9200000000000000000000000000000000000000000000000000000000815260040161076491906128ce565b60405180910390fd5b6000610781838361077c611527565b61162b565b90508373ffffffffffffffffffffffffffffffffffffffff168173ffffffffffffffffffffffffffffffffffffffff16146107f7578382826040517f64283d7b0000000000000000000000000000000000000000000000000000000081526004016107ee93929190612fb9565b60405180910390fd5b50505050565b60096020528060005260406000206000915090508060000154908060010160009054906101000a900473ffffffffffffffffffffffffffffffffffffffff16908060020154908060030160009054906101000a900460ff16905084565b610862611541565b61086a610da1565b73ffffffffffffffffffffffffffffffffffffffff166108fc479081150290604051600060405180830381858888f193505050501580156108af573d6000803e3d6000fd5b50565b6108ba611541565b6108c2611845565b565b6108df83838360405180602001604052806000815250610fba565b505050565b6108ec6118a8565b600060096000838152602001908152602001600020604051806080016040529081600082015481526020016001820160009054906101000a900473ffffffffffffffffffffffffffffffffffffffff1673ffffffffffffffffffffffffffffffffffffffff1673ffffffffffffffffffffffffffffffffffffffff168152602001600282015481526020016003820160009054906101000a900460ff161515151581525050905080606001516109d7576040517f08c379a00000000000000000000000000000000000000000000000000000000081526004016109ce9061303c565b60405180910390fd5b8060400151341015610a1e576040517f08c379a0000000000000000000000000000000000000000000000000000000008152600401610a15906130a8565b60405180910390fd5b6000610a2983610cc1565b9050610a368133856118e9565b8073ffffffffffffffffffffffffffffffffffffffff166108fc349081150290604051600060405180830381858888f19350505050158015610a7c573d6000803e3d6000fd5b5060006009600085815260200190815260200160002060030160006101000a81548160ff0219169083151502179055503373ffffffffffffffffffffffffffffffffffffffff16837f26701af1547d690b8c46ed5f0fbb8d5b115492b3b898f3dfc2e87b26cfcc1b148460400151604051610af79190612bae565b60405180910390a3505050565b6000610b0e6118a8565b60008211610b51576040517f08c379a0000000000000000000000000000000000000000000000000000000008152600401610b4890613114565b60405180910390fd5b600160086000828254610b649190613163565b9250508190555060006008549050610b7c3382611a56565b610b868185611b4f565b60405180608001604052808281526020013373ffffffffffffffffffffffffffffffffffffffff16815260200184815260200160011515815250600960008381526020019081526020016000206000820151816000015560208201518160010160006101000a81548173ffffffffffffffffffffffffffffffffffffffff021916908373ffffffffffffffffffffffffffffffffffffffff1602179055506040820151816002015560608201518160030160006101000a81548160ff0219169083151502179055509050503373ffffffffffffffffffffffffffffffffffffffff16817f055e34067993de700e7f718f190fdccc92a27695bb9068504a1a44258577f8eb85604051610c989190612bae565b60405180910390a38091505092915050565b6000600760149054906101000a900460ff16905090565b6000610ccc82611462565b9050919050565b60008073ffffffffffffffffffffffffffffffffffffffff168273ffffffffffffffffffffffffffffffffffffffff1603610d465760006040517f89c62b64000000000000000000000000000000000000000000000000000000008152600401610d3d91906128ce565b60405180910390fd5b600360008373ffffffffffffffffffffffffffffffffffffffff1673ffffffffffffffffffffffffffffffffffffffff168152602001908152602001600020549050919050565b610d95611541565b610d9f6000611bab565b565b6000600760009054906101000a900473ffffffffffffffffffffffffffffffffffffffff16905090565b610dd36118a8565b3373ffffffffffffffffffffffffffffffffffffffff16610df383610cc1565b73ffffffffffffffffffffffffffffffffffffffff1614610e49576040517f08c379a0000000000000000000000000000000000000000000000000000000008152600401610e40906131e3565b60405180910390fd5b60008111610e8c576040517f08c379a0000000000000000000000000000000000000000000000000000000008152600401610e8390613114565b60405180910390fd5b80600960008481526020019081526020016000206002018190555060016009600084815260200190815260200160002060030160006101000a81548160ff021916908315150217905550817fa6cd73580a273eec6c1026108f6b63479fbaef5356dde4ff43e4b38dd187485f82604051610f069190612bae565b60405180910390a25050565b606060018054610f2190612f88565b80601f0160208091040260200160405190810160405280929190818152602001828054610f4d90612f88565b8015610f9a5780601f10610f6f57610100808354040283529160200191610f9a565b820191906000526020600020905b815481529060010190602001808311610f7d57829003601f168201915b5050505050905090565b610fb6610faf611527565b8383611c71565b5050565b610fc58484846106fb565b610fd184848484611de0565b50505050565b6060610fe282611462565b50600060066000848152602001908152602001600020805461100390612f88565b80601f016020809104026020016040519081016040528092919081815260200182805461102f90612f88565b801561107c5780601f106110515761010080835404028352916020019161107c565b820191906000526020600020905b81548152906001019060200180831161105f57829003601f168201915b50505050509050600061108d611f97565b905060008151036110a25781925050506110e5565b6000825111156110d75780826040516020016110bf92919061323f565b604051602081830303815290604052925050506110e5565b6110e084611fae565b925050505b919050565b60606000600854905060008167ffffffffffffffff81111561110f5761110e612a27565b5b60405190808252806020026020018201604052801561114857816020015b611135612669565b81526020019060019003908161112d5790505b509050600080600190505b83811161125c5760006009600083815260200190815260200160002060000154146112495760096000828152602001908152602001600020604051806080016040529081600082015481526020016001820160009054906101000a900473ffffffffffffffffffffffffffffffffffffffff1673ffffffffffffffffffffffffffffffffffffffff1673ffffffffffffffffffffffffffffffffffffffff168152602001600282015481526020016003820160009054906101000a900460ff16151515158152505083838151811061122e5761122d613263565b5b60200260200101819052506001826112469190613163565b91505b808061125490613292565b915050611153565b5081935050505090565b6000600560008473ffffffffffffffffffffffffffffffffffffffff1673ffffffffffffffffffffffffffffffffffffffff16815260200190815260200160002060008373ffffffffffffffffffffffffffffffffffffffff1673ffffffffffffffffffffffffffffffffffffffff16815260200190815260200160002060009054906101000a900460ff16905092915050565b611302611541565b600073ffffffffffffffffffffffffffffffffffffffff168173ffffffffffffffffffffffffffffffffffffffff16036113745760006040517f1e4fbdf700000000000000000000000000000000000000000000000000000000815260040161136b91906128ce565b60405180910390fd5b61137d81611bab565b50565b60007f80ac58cd000000000000000000000000000000000000000000000000000000007bffffffffffffffffffffffffffffffffffffffffffffffffffffffff1916827bffffffffffffffffffffffffffffffffffffffffffffffffffffffff1916148061144b57507f5b5e139f000000000000000000000000000000000000000000000000000000007bffffffffffffffffffffffffffffffffffffffffffffffffffffffff1916827bffffffffffffffffffffffffffffffffffffffffffffffffffffffff1916145b8061145b575061145a82612017565b5b9050919050565b60008061146e83612081565b9050600073ffffffffffffffffffffffffffffffffffffffff168173ffffffffffffffffffffffffffffffffffffffff16036114e157826040517f7e2732890000000000000000000000000000000000000000000000000000000081526004016114d89190612bae565b60405180910390fd5b80915050919050565b60006004600083815260200190815260200160002060009054906101000a900473ffffffffffffffffffffffffffffffffffffffff169050919050565b600033905090565b61153c83838360016120be565b505050565b611549611527565b73ffffffffffffffffffffffffffffffffffffffff16611567610da1565b73ffffffffffffffffffffffffffffffffffffffff16146115c65761158a611527565b6040517f118cdaa70000000000000000000000000000000000000000000000000000000081526004016115bd91906128ce565b60405180910390fd5b565b6115d0612283565b6000600760146101000a81548160ff0219169083151502179055507f5db9ee0a495bf2e6ff9c91a7834c1ba4fdd244a5e8aa4e537bd38aeae4b073aa611614611527565b60405161162191906128ce565b60405180910390a1565b60008061163784612081565b9050600073ffffffffffffffffffffffffffffffffffffffff168373ffffffffffffffffffffffffffffffffffffffff1614611679576116788184866122c3565b5b600073ffffffffffffffffffffffffffffffffffffffff168173ffffffffffffffffffffffffffffffffffffffff161461170a576116bb6000856000806120be565b6001600360008373ffffffffffffffffffffffffffffffffffffffff1673ffffffffffffffffffffffffffffffffffffffff168152602001908152602001600020600082825403925050819055505b600073ffffffffffffffffffffffffffffffffffffffff168573ffffffffffffffffffffffffffffffffffffffff161461178d576001600360008773ffffffffffffffffffffffffffffffffffffffff1673ffffffffffffffffffffffffffffffffffffffff168152602001908152602001600020600082825401925050819055505b846002600086815260200190815260200160002060006101000a81548173ffffffffffffffffffffffffffffffffffffffff021916908373ffffffffffffffffffffffffffffffffffffffff160217905550838573ffffffffffffffffffffffffffffffffffffffff168273ffffffffffffffffffffffffffffffffffffffff167fddf252ad1be2c89b69c2b068fc378daa952ba7f163c4a11628f55a4df523b3ef60405160405180910390a4809150509392505050565b61184d6118a8565b6001600760146101000a81548160ff0219169083151502179055507f62e78cea01bee320cd4e420270b5ea74000d11b0c9f74754ebdbfc544b05a258611891611527565b60405161189e91906128ce565b60405180910390a1565b6118b0610caa565b156118e7576040517fd93c066500000000000000000000000000000000000000000000000000000000815260040160405180910390fd5b565b600073ffffffffffffffffffffffffffffffffffffffff168273ffffffffffffffffffffffffffffffffffffffff160361195b5760006040517f64a0ae9200000000000000000000000000000000000000000000000000000000815260040161195291906128ce565b60405180910390fd5b60006119698383600061162b565b9050600073ffffffffffffffffffffffffffffffffffffffff168173ffffffffffffffffffffffffffffffffffffffff16036119dc57816040517f7e2732890000000000000000000000000000000000000000000000000000000081526004016119d39190612bae565b60405180910390fd5b8373ffffffffffffffffffffffffffffffffffffffff168173ffffffffffffffffffffffffffffffffffffffff1614611a50578382826040517f64283d7b000000000000000000000000000000000000000000000000000000008152600401611a4793929190612fb9565b60405180910390fd5b50505050565b600073ffffffffffffffffffffffffffffffffffffffff168273ffffffffffffffffffffffffffffffffffffffff1603611ac85760006040517f64a0ae92000000000000000000000000000000000000000000000000000000008152600401611abf91906128ce565b60405180910390fd5b6000611ad68383600061162b565b9050600073ffffffffffffffffffffffffffffffffffffffff168173ffffffffffffffffffffffffffffffffffffffff1614611b4a5760006040517f73c6ac6e000000000000000000000000000000000000000000000000000000008152600401611b4191906128ce565b60405180910390fd5b505050565b80600660008481526020019081526020016000209081611b6f9190613486565b507ff8e1a15aba9398e019f0b49df1a4fde98ee17ae345cb5f6b5e2c27f5033e8ce782604051611b9f9190612bae565b60405180910390a15050565b6000600760009054906101000a900473ffffffffffffffffffffffffffffffffffffffff16905081600760006101000a81548173ffffffffffffffffffffffffffffffffffffffff021916908373ffffffffffffffffffffffffffffffffffffffff1602179055508173ffffffffffffffffffffffffffffffffffffffff168173ffffffffffffffffffffffffffffffffffffffff167f8be0079c531659141344cd1fd0a4f28419497f9722a3daafe3b4186f6b6457e060405160405180910390a35050565b600073ffffffffffffffffffffffffffffffffffffffff168273ffffffffffffffffffffffffffffffffffffffff1603611ce257816040517f5b08ba18000000000000000000000000000000000000000000000000000000008152600401611cd991906128ce565b60405180910390fd5b80600560008573ffffffffffffffffffffffffffffffffffffffff1673ffffffffffffffffffffffffffffffffffffffff16815260200190815260200160002060008473ffffffffffffffffffffffffffffffffffffffff1673ffffffffffffffffffffffffffffffffffffffff16815260200190815260200160002060006101000a81548160ff0219169083151502179055508173ffffffffffffffffffffffffffffffffffffffff168373ffffffffffffffffffffffffffffffffffffffff167f17307eab39ab6107e8899845ad3d59bd9653f200f220920489ca2b5937696c3183604051611dd3919061275d565b60405180910390a3505050565b60008373ffffffffffffffffffffffffffffffffffffffff163b1115611f91578273ffffffffffffffffffffffffffffffffffffffff1663150b7a02611e24611527565b8685856040518563ffffffff1660e01b8152600401611e4694939291906135ad565b6020604051808303816000875af1925050508015611e8257506040513d601f19601f82011682018060405250810190611e7f919061360e565b60015b611f06573d8060008114611eb2576040519150601f19603f3d011682016040523d82523d6000602084013e611eb7565b606091505b506000815103611efe57836040517f64a0ae92000000000000000000000000000000000000000000000000000000008152600401611ef591906128ce565b60405180910390fd5b805181602001fd5b63150b7a0260e01b7bffffffffffffffffffffffffffffffffffffffffffffffffffffffff1916817bffffffffffffffffffffffffffffffffffffffffffffffffffffffff191614611f8f57836040517f64a0ae92000000000000000000000000000000000000000000000000000000008152600401611f8691906128ce565b60405180910390fd5b505b50505050565b606060405180602001604052806000815250905090565b6060611fb982611462565b506000611fc4611f97565b90506000815111611fe4576040518060200160405280600081525061200f565b80611fee84612387565b604051602001611fff92919061323f565b6040516020818303038152906040525b915050919050565b60007f01ffc9a7000000000000000000000000000000000000000000000000000000007bffffffffffffffffffffffffffffffffffffffffffffffffffffffff1916827bffffffffffffffffffffffffffffffffffffffffffffffffffffffff1916149050919050565b60006002600083815260200190815260200160002060009054906101000a900473ffffffffffffffffffffffffffffffffffffffff169050919050565b80806120f75750600073ffffffffffffffffffffffffffffffffffffffff168273ffffffffffffffffffffffffffffffffffffffff1614155b1561222b57600061210784611462565b9050600073ffffffffffffffffffffffffffffffffffffffff168373ffffffffffffffffffffffffffffffffffffffff161415801561217257508273ffffffffffffffffffffffffffffffffffffffff168173ffffffffffffffffffffffffffffffffffffffff1614155b801561218557506121838184611266565b155b156121c757826040517fa9fbf51f0000000000000000000000000000000000000000000000000000000081526004016121be91906128ce565b60405180910390fd5b811561222957838573ffffffffffffffffffffffffffffffffffffffff168273ffffffffffffffffffffffffffffffffffffffff167f8c5be1e5ebec7d5bd14f71427d1e84f3dd0314c0f7b2291e5b200ac8c7c3b92560405160405180910390a45b505b836004600085815260200190815260200160002060006101000a81548173ffffffffffffffffffffffffffffffffffffffff021916908373ffffffffffffffffffffffffffffffffffffffff16021790555050505050565b61228b610caa565b6122c1576040517f8dfc202b00000000000000000000000000000000000000000000000000000000815260040160405180910390fd5b565b6122ce838383612455565b61238257600073ffffffffffffffffffffffffffffffffffffffff168373ffffffffffffffffffffffffffffffffffffffff160361234357806040517f7e27328900000000000000000000000000000000000000000000000000000000815260040161233a9190612bae565b60405180910390fd5b81816040517f177e802f00000000000000000000000000000000000000000000000000000000815260040161237992919061363b565b60405180910390fd5b505050565b60606000600161239684612516565b01905060008167ffffffffffffffff8111156123b5576123b4612a27565b5b6040519080825280601f01601f1916602001820160405280156123e75781602001600182028036833780820191505090505b509050600082602001820190505b60011561244a578080600190039150507f3031323334353637383961626364656600000000000000000000000000000000600a86061a8153600a858161243e5761243d613664565b5b049450600085036123f5575b819350505050919050565b60008073ffffffffffffffffffffffffffffffffffffffff168373ffffffffffffffffffffffffffffffffffffffff161415801561250d57508273ffffffffffffffffffffffffffffffffffffffff168473ffffffffffffffffffffffffffffffffffffffff1614806124ce57506124cd8484611266565b5b8061250c57508273ffffffffffffffffffffffffffffffffffffffff166124f4836114ea565b73ffffffffffffffffffffffffffffffffffffffff16145b5b90509392505050565b600080600090507a184f03e93ff9f4daa797ed6e38ed64bf6a1f0100000000000000008310612574577a184f03e93ff9f4daa797ed6e38ed64bf6a1f010000000000000000838161256a57612569613664565b5b0492506040810190505b6d04ee2d6d415b85acef810000000083106125b1576d04ee2d6d415b85acef810000000083816125a7576125a6613664565b5b0492506020810190505b662386f26fc1000083106125e057662386f26fc1000083816125d6576125d5613664565b5b0492506010810190505b6305f5e1008310612609576305f5e10083816125ff576125fe613664565b5b0492506008810190505b612710831061262e57612710838161262457612623613664565b5b0492506004810190505b60648310612651576064838161264757612646613664565b5b0492506002810190505b600a8310612660576001810190505b80915050919050565b604051806080016040528060008152602001600073ffffffffffffffffffffffffffffffffffffffff168152602001600081526020016000151581525090565b6000604051905090565b600080fd5b600080fd5b60007fffffffff0000000000000000000000000000000000000000000000000000000082169050919050565b6126f2816126bd565b81146126fd57600080fd5b50565b60008135905061270f816126e9565b92915050565b60006020828403121561272b5761272a6126b3565b5b600061273984828501612700565b91505092915050565b60008115159050919050565b61275781612742565b82525050565b6000602082019050612772600083018461274e565b92915050565b600081519050919050565b600082825260208201905092915050565b60005b838110156127b2578082015181840152602081019050612797565b60008484015250505050565b6000601f19601f8301169050919050565b60006127da82612778565b6127e48185612783565b93506127f4818560208601612794565b6127fd816127be565b840191505092915050565b6000602082019050818103600083015261282281846127cf565b905092915050565b6000819050919050565b61283d8161282a565b811461284857600080fd5b50565b60008135905061285a81612834565b92915050565b600060208284031215612876576128756126b3565b5b60006128848482850161284b565b91505092915050565b600073ffffffffffffffffffffffffffffffffffffffff82169050919050565b60006128b88261288d565b9050919050565b6128c8816128ad565b82525050565b60006020820190506128e360008301846128bf565b92915050565b6128f2816128ad565b81146128fd57600080fd5b50565b60008135905061290f816128e9565b92915050565b6000806040838503121561292c5761292b6126b3565b5b600061293a85828601612900565b925050602061294b8582860161284b565b9150509250929050565b60008060006060848603121561296e5761296d6126b3565b5b600061297c86828701612900565b935050602061298d86828701612900565b925050604061299e8682870161284b565b9150509250925092565b6129b18161282a565b82525050565b60006129c28261288d565b9050919050565b6129d2816129b7565b82525050565b60006080820190506129ed60008301876129a8565b6129fa60208301866129c9565b612a0760408301856129a8565b612a14606083018461274e565b95945050505050565b600080fd5b600080fd5b7f4e487b7100000000000000000000000000000000000000000000000000000000600052604160045260246000fd5b612a5f826127be565b810181811067ffffffffffffffff82111715612a7e57612a7d612a27565b5b80604052505050565b6000612a916126a9565b9050612a9d8282612a56565b919050565b600067ffffffffffffffff821115612abd57612abc612a27565b5b612ac6826127be565b9050602081019050919050565b82818337600083830152505050565b6000612af5612af084612aa2565b612a87565b905082815260208101848484011115612b1157612b10612a22565b5b612b1c848285612ad3565b509392505050565b600082601f830112612b3957612b38612a1d565b5b8135612b49848260208601612ae2565b91505092915050565b60008060408385031215612b6957612b686126b3565b5b600083013567ffffffffffffffff811115612b8757612b866126b8565b5b612b9385828601612b24565b9250506020612ba48582860161284b565b9150509250929050565b6000602082019050612bc360008301846129a8565b92915050565b600060208284031215612bdf57612bde6126b3565b5b6000612bed84828501612900565b91505092915050565b60008060408385031215612c0d57612c0c6126b3565b5b6000612c1b8582860161284b565b9250506020612c2c8582860161284b565b9150509250929050565b612c3f81612742565b8114612c4a57600080fd5b50565b600081359050612c5c81612c36565b92915050565b60008060408385031215612c7957612c786126b3565b5b6000612c8785828601612900565b9250506020612c9885828601612c4d565b9150509250929050565b600067ffffffffffffffff821115612cbd57612cbc612a27565b5b612cc6826127be565b9050602081019050919050565b6000612ce6612ce184612ca2565b612a87565b905082815260208101848484011115612d0257612d01612a22565b5b612d0d848285612ad3565b509392505050565b600082601f830112612d2a57612d29612a1d565b5b8135612d3a848260208601612cd3565b91505092915050565b60008060008060808587031215612d5d57612d5c6126b3565b5b6000612d6b87828801612900565b9450506020612d7c87828801612900565b9350506040612d8d8782880161284b565b925050606085013567ffffffffffffffff811115612dae57612dad6126b8565b5b612dba87828801612d15565b91505092959194509250565b600081519050919050565b600082825260208201905092915050565b6000819050602082019050919050565b612dfb8161282a565b82525050565b612e0a816129b7565b82525050565b612e1981612742565b82525050565b608082016000820151612e356000850182612df2565b506020820151612e486020850182612e01565b506040820151612e5b6040850182612df2565b506060820151612e6e6060850182612e10565b50505050565b6000612e808383612e1f565b60808301905092915050565b6000602082019050919050565b6000612ea482612dc6565b612eae8185612dd1565b9350612eb983612de2565b8060005b83811015612eea578151612ed18882612e74565b9750612edc83612e8c565b925050600181019050612ebd565b5085935050505092915050565b60006020820190508181036000830152612f118184612e99565b905092915050565b60008060408385031215612f3057612f2f6126b3565b5b6000612f3e85828601612900565b9250506020612f4f85828601612900565b9150509250929050565b7f4e487b7100000000000000000000000000000000000000000000000000000000600052602260045260246000fd5b60006002820490506001821680612fa057607f821691505b602082108103612fb357612fb2612f59565b5b50919050565b6000606082019050612fce60008301866128bf565b612fdb60208301856129a8565b612fe860408301846128bf565b949350505050565b7f4e4654206e6f7420666f722073616c6500000000000000000000000000000000600082015250565b6000613026601083612783565b915061303182612ff0565b602082019050919050565b6000602082019050818103600083015261305581613019565b9050919050565b7f496e73756666696369656e742066756e64730000000000000000000000000000600082015250565b6000613092601283612783565b915061309d8261305c565b602082019050919050565b600060208201905081810360008301526130c181613085565b9050919050565b7f5072696365206d7573742062652067726561746572207468616e203000000000600082015250565b60006130fe601c83612783565b9150613109826130c8565b602082019050919050565b6000602082019050818103600083015261312d816130f1565b9050919050565b7f4e487b7100000000000000000000000000000000000000000000000000000000600052601160045260246000fd5b600061316e8261282a565b91506131798361282a565b925082820190508082111561319157613190613134565b5b92915050565b7f4e6f7420746865206f776e657200000000000000000000000000000000000000600082015250565b60006131cd600d83612783565b91506131d882613197565b602082019050919050565b600060208201905081810360008301526131fc816131c0565b9050919050565b600081905092915050565b600061321982612778565b6132238185613203565b9350613233818560208601612794565b80840191505092915050565b600061324b828561320e565b9150613257828461320e565b91508190509392505050565b7f4e487b7100000000000000000000000000000000000000000000000000000000600052603260045260246000fd5b600061329d8261282a565b91507fffffffffffffffffffffffffffffffffffffffffffffffffffffffffffffffff82036132cf576132ce613134565b5b600182019050919050565b60008190508160005260206000209050919050565b60006020601f8301049050919050565b600082821b905092915050565b60006008830261333c7fffffffffffffffffffffffffffffffffffffffffffffffffffffffffffffffff826132ff565b61334686836132ff565b95508019841693508086168417925050509392505050565b6000819050919050565b600061338361337e6133798461282a565b61335e565b61282a565b9050919050565b6000819050919050565b61339d83613368565b6133b16133a98261338a565b84845461330c565b825550505050565b600090565b6133c66133b9565b6133d1818484613394565b505050565b5b818110156133f5576133ea6000826133be565b6001810190506133d7565b5050565b601f82111561343a5761340b816132da565b613414846132ef565b81016020851015613423578190505b61343761342f856132ef565b8301826133d6565b50505b505050565b600082821c905092915050565b600061345d6000198460080261343f565b1980831691505092915050565b6000613476838361344c565b9150826002028217905092915050565b61348f82612778565b67ffffffffffffffff8111156134a8576134a7612a27565b5b6134b28254612f88565b6134bd8282856133f9565b600060209050601f8311600181146134f057600084156134de578287015190505b6134e8858261346a565b865550613550565b601f1984166134fe866132da565b60005b8281101561352657848901518255600182019150602085019450602081019050613501565b86831015613543578489015161353f601f89168261344c565b8355505b6001600288020188555050505b505050505050565b600081519050919050565b600082825260208201905092915050565b600061357f82613558565b6135898185613563565b9350613599818560208601612794565b6135a2816127be565b840191505092915050565b60006080820190506135c260008301876128bf565b6135cf60208301866128bf565b6135dc60408301856129a8565b81810360608301526135ee8184613574565b905095945050505050565b600081519050613608816126e9565b92915050565b600060208284031215613624576136236126b3565b5b6000613632848285016135f9565b91505092915050565b600060408201905061365060008301856128bf565b61365d60208301846129a8565b9392505050565b7f4e487b7100000000000000000000000000000000000000000000000000000000600052601260045260246000fdfea2646970667358221220725a0a1fef23becdb4679fa8949835e277098414431dd64ac687b28f6dcec6ff64736f6c63430008180033",
  "linkReferences": {},
  "deployedLinkReferences": {}
}